{
  "transactions": [
    {
      "hash": "0x50da46e4c1aaf4f24e29f15eeea7e27e2a884a9d958647a70ac1bbe0f267a431",
      "transactionType": "CALL",
      "contractName": null,
      "contractAddress": "0x150fa2411e99ac9d98e862496fc5e710b0af63bb",
      "function": "mintNFT(address,string)",
      "arguments": [
        "0x424bBA2a6f1c14e4D8e2Cf1bCAE1B06740Fa4755",
        "ipfs://bafkreid5nywbwq3mujctdoz3ilxhncbvglmqe5m3jswg5qk5hn3mzqhnxq"
      ],
      "transaction": {
        "from": "0x424bba2a6f1c14e4d8e2cf1bcae1b06740fa4755",
        "to": "0x150fa2411e99ac9d98e862496fc5e710b0af63bb",
        "gas": "0x36035",
        "value": "0x0",
        "input": "0xeacabe14000000000000000000000000424bba2a6f1c14e4d8e2cf1bcae1b06740fa475500000000000000000000000000000000000000000000000000000000000000400000000000000000000000000000000000000000000000000000000000000042697066733a2f2f6261666b72656964356e7977627771336d756a6374646f7a33696c78686e636276676c6d7165356d336a73776735716b35686e336d7a71686e7871000000000000000000000000000000000000000000000000000000000000",
        "nonce": "0x8",
        "chainId": "0xa869"
      },
      "additionalContracts": [],
      "isFixedGasLimit": false
    }
  ],
  "receipts": [
    {
      "status": "0x1",
      "cumulativeGasUsed": "0x24eea",
      "logs": [
        {
          "address": "0x150fa2411e99ac9d98e862496fc5e710b0af63bb",
          "topics": [
            "0xddf252ad1be2c89b69c2b068fc378daa952ba7f163c4a11628f55a4df523b3ef",
            "0x0000000000000000000000000000000000000000000000000000000000000000",
            "0x000000000000000000000000424bba2a6f1c14e4d8e2cf1bcae1b06740fa4755",
            "0x0000000000000000000000000000000000000000000000000000000000000003"
          ],
          "data": "0x",
          "blockHash": "0x55e47e07a0e7b2db4e8ab6dc0fc449fac69824776be55419eaa20b1d47fde246",
          "blockNumber": "0x239b315",
          "transactionHash": "0x50da46e4c1aaf4f24e29f15eeea7e27e2a884a9d958647a70ac1bbe0f267a431",
          "transactionIndex": "0x0",
          "logIndex": "0x0",
          "removed": false
        },
        {
          "address": "0x150fa2411e99ac9d98e862496fc5e710b0af63bb",
          "topics": [
            "0xf8e1a15aba9398e019f0b49df1a4fde98ee17ae345cb5f6b5e2c27f5033e8ce7"
          ],
          "data": "0x0000000000000000000000000000000000000000000000000000000000000003",
          "blockHash": "0x55e47e07a0e7b2db4e8ab6dc0fc449fac69824776be55419eaa20b1d47fde246",
          "blockNumber": "0x239b315",
          "transactionHash": "0x50da46e4c1aaf4f24e29f15eeea7e27e2a884a9d958647a70ac1bbe0f267a431",
          "transactionIndex": "0x0",
          "logIndex": "0x1",
          "removed": false
        }
      ],
      "logsBloom": "0x00000080000000000000000000000000000000000800000000000000000000000000000000000000000000002000000000000000020000000000000000000040000000000000000000000008000000000000000000000000000000000000000000000000020000000000000000000800000000000000000000000010000000000000000000000000000000000000000000000000000000000000000000000000000000000000000000000000000000002000000000800000000000000000408000000002000000000000000000000000000000000000000000000000820020000000000000000000200000000000000000000000000000000000000000000000",
      "type": "0x2",
      "transactionHash": "0x50da46e4c1aaf4f24e29f15eeea7e27e2a884a9d958647a70ac1bbe0f267a431",
      "transactionIndex": "0x0",
      "blockHash": "0x55e47e07a0e7b2db4e8ab6dc0fc449fac69824776be55419eaa20b1d47fde246",
      "blockNumber": "0x239b315",
      "gasUsed": "0x24eea",
      "effectiveGasPrice": "0x5d21dba00",
      "from": "0x424bba2a6f1c14e4d8e2cf1bcae1b06740fa4755",
      "to": "0x150fa2411e99ac9d98e862496fc5e710b0af63bb",
      "contractAddress": null
    }
  ],
  "libraries": [],
  "pending": [],
  "returns": {},
  "timestamp": 1735450305,
  "chain": 43113,
  "commit": "076752e"
}