{
  "transactions": [
    {
      "hash": "0xe116f9819544705ee38ccb873a325bf2fbb7c30f048e671beb6a593d446b6915",
      "transactionType": "CALL",
      "contractName": null,
      "contractAddress": "0x150fa2411e99ac9d98e862496fc5e710b0af63bb",
      "function": "mintNFT(address,string)",
      "arguments": [
        "0x424bBA2a6f1c14e4D8e2Cf1bCAE1B06740Fa4755",
        "ipfs://bafkreiab3ouagjt7rcpwa657aearptytdxeijjik6e7cmayvbcr3rdhhm4"
      ],
      "transaction": {
        "from": "0x424bba2a6f1c14e4d8e2cf1bcae1b06740fa4755",
        "to": "0x150fa2411e99ac9d98e862496fc5e710b0af63bb",
        "gas": "0x36035",
        "value": "0x0",
        "input": "0xeacabe14000000000000000000000000424bba2a6f1c14e4d8e2cf1bcae1b06740fa475500000000000000000000000000000000000000000000000000000000000000400000000000000000000000000000000000000000000000000000000000000042697066733a2f2f6261666b7265696162336f7561676a743772637077613635376165617270747974647865696a6a696b366537636d61797662637233726468686d34000000000000000000000000000000000000000000000000000000000000",
        "nonce": "0x7",
        "chainId": "0xa869"
      },
      "additionalContracts": [],
      "isFixedGasLimit": false
    }
  ],
  "receipts": [
    {
      "status": "0x1",
      "cumulativeGasUsed": "0x24eea",
      "logs": [
        {
          "address": "0x150fa2411e99ac9d98e862496fc5e710b0af63bb",
          "topics": [
            "0xddf252ad1be2c89b69c2b068fc378daa952ba7f163c4a11628f55a4df523b3ef",
            "0x0000000000000000000000000000000000000000000000000000000000000000",
            "0x000000000000000000000000424bba2a6f1c14e4d8e2cf1bcae1b06740fa4755",
            "0x0000000000000000000000000000000000000000000000000000000000000002"
          ],
          "data": "0x",
          "blockHash": "0x25406370c9c0f1f50a5379eb4d23db56ac3a012ce22c187f2c336706b094d0ca",
          "blockNumber": "0x239b2e0",
          "transactionHash": "0xe116f9819544705ee38ccb873a325bf2fbb7c30f048e671beb6a593d446b6915",
          "transactionIndex": "0x0",
          "logIndex": "0x0",
          "removed": false
        },
        {
          "address": "0x150fa2411e99ac9d98e862496fc5e710b0af63bb",
          "topics": [
            "0xf8e1a15aba9398e019f0b49df1a4fde98ee17ae345cb5f6b5e2c27f5033e8ce7"
          ],
          "data": "0x0000000000000000000000000000000000000000000000000000000000000002",
          "blockHash": "0x25406370c9c0f1f50a5379eb4d23db56ac3a012ce22c187f2c336706b094d0ca",
          "blockNumber": "0x239b2e0",
          "transactionHash": "0xe116f9819544705ee38ccb873a325bf2fbb7c30f048e671beb6a593d446b6915",
          "transactionIndex": "0x0",
          "logIndex": "0x1",
          "removed": false
        }
      ],
      "logsBloom": "0x04000080000000000000000000000000000000000800000000000000000000000000000000000000000000002000000000000000000000000000000000000040000000000000000000000008000000000000000000000000000000000000000000000000020000000000000000000800000000000000000000000010000000000000000000000000000000000000000000000000000000000000000000000000000000000000000000000100000000002000000000000000000000000000008000000002000000000000000000000000000000000000000000000000820020000000000000000000200000000000000000000000008000000000000000000000",
      "type": "0x2",
      "transactionHash": "0xe116f9819544705ee38ccb873a325bf2fbb7c30f048e671beb6a593d446b6915",
      "transactionIndex": "0x0",
      "blockHash": "0x25406370c9c0f1f50a5379eb4d23db56ac3a012ce22c187f2c336706b094d0ca",
      "blockNumber": "0x239b2e0",
      "gasUsed": "0x24eea",
      "effectiveGasPrice": "0x4190ab01",
      "from": "0x424bba2a6f1c14e4d8e2cf1bcae1b06740fa4755",
      "to": "0x150fa2411e99ac9d98e862496fc5e710b0af63bb",
      "contractAddress": null
    }
  ],
  "libraries": [],
  "pending": [],
  "returns": {},
  "timestamp": 1735449708,
  "chain": 43113,
  "commit": "948ea5b"
}