{
  "transactions": [
    {
      "hash": "0x89d9268b30933a1a36a0106cb61a8071703b5c838ef335d61160e0686bba4d6e",
      "transactionType": "CALL",
      "contractName": null,
      "contractAddress": "0x150fa2411e99ac9d98e862496fc5e710b0af63bb",
      "function": "mintNFT(address,string)",
      "arguments": [
        "0x424bBA2a6f1c14e4D8e2Cf1bCAE1B06740Fa4755",
        "https://blue-glamorous-spider-989.mypinata.cloud/ipfs/bafkreic4ly6zt3u5vteb5tylx4jcpiy6weycbuqxai6t557bvvxcwqjop4"
      ],
      "transaction": {
        "from": "0x424bba2a6f1c14e4d8e2cf1bcae1b06740fa4755",
        "to": "0x150fa2411e99ac9d98e862496fc5e710b0af63bb",
        "gas": "0x3aba9",
        "value": "0x0",
        "input": "0xeacabe14000000000000000000000000424bba2a6f1c14e4d8e2cf1bcae1b06740fa47550000000000000000000000000000000000000000000000000000000000000040000000000000000000000000000000000000000000000000000000000000007168747470733a2f2f626c75652d676c616d6f726f75732d7370696465722d3938392e6d7970696e6174612e636c6f75642f697066732f6261666b72656963346c79367a74337535767465623574796c78346a6370697936776579636275717861693674353537627676786377716a6f7034000000000000000000000000000000",
        "nonce": "0x6",
        "chainId": "0xa869"
      },
      "additionalContracts": [],
      "isFixedGasLimit": false
    }
  ],
  "receipts": [
    {
      "status": "0x1",
      "cumulativeGasUsed": "0x2a84d",
      "logs": [
        {
          "address": "0x150fa2411e99ac9d98e862496fc5e710b0af63bb",
          "topics": [
            "0xddf252ad1be2c89b69c2b068fc378daa952ba7f163c4a11628f55a4df523b3ef",
            "0x0000000000000000000000000000000000000000000000000000000000000000",
            "0x000000000000000000000000424bba2a6f1c14e4d8e2cf1bcae1b06740fa4755",
            "0x0000000000000000000000000000000000000000000000000000000000000001"
          ],
          "data": "0x",
          "blockHash": "0x304cf566f380df4ea0170204b1984d113e5ad22d0a6f1ff2d0583c336f7d72b3",
          "blockNumber": "0x239b2a1",
          "transactionHash": "0x89d9268b30933a1a36a0106cb61a8071703b5c838ef335d61160e0686bba4d6e",
          "transactionIndex": "0x0",
          "logIndex": "0x0",
          "removed": false
        },
        {
          "address": "0x150fa2411e99ac9d98e862496fc5e710b0af63bb",
          "topics": [
            "0xf8e1a15aba9398e019f0b49df1a4fde98ee17ae345cb5f6b5e2c27f5033e8ce7"
          ],
          "data": "0x0000000000000000000000000000000000000000000000000000000000000001",
          "blockHash": "0x304cf566f380df4ea0170204b1984d113e5ad22d0a6f1ff2d0583c336f7d72b3",
          "blockNumber": "0x239b2a1",
          "transactionHash": "0x89d9268b30933a1a36a0106cb61a8071703b5c838ef335d61160e0686bba4d6e",
          "transactionIndex": "0x0",
          "logIndex": "0x1",
          "removed": false
        }
      ],
      "logsBloom": "0x00000080000000000000000000000000000000000800000000000000000000000000000000000000000000002000000000000000000000000000000000040040000000000000000000000008000000000000000000040000000000000000000000000000020000000000000000000800000000000000000000000010000000000000000000000000000000000000000000000000000000000000000000000000000000000000000000000000000000002000000000000000000000000000008000000002000000000000000000000000000000000000000000000000820060000000000000000000200000000000000000000000000000000000000000000000",
      "type": "0x2",
      "transactionHash": "0x89d9268b30933a1a36a0106cb61a8071703b5c838ef335d61160e0686bba4d6e",
      "transactionIndex": "0x0",
      "blockHash": "0x304cf566f380df4ea0170204b1984d113e5ad22d0a6f1ff2d0583c336f7d72b3",
      "blockNumber": "0x239b2a1",
      "gasUsed": "0x2a84d",
      "effectiveGasPrice": "0x5d21dba00",
      "from": "0x424bba2a6f1c14e4d8e2cf1bcae1b06740fa4755",
      "to": "0x150fa2411e99ac9d98e862496fc5e710b0af63bb",
      "contractAddress": null
    }
  ],
  "libraries": [],
  "pending": [],
  "returns": {},
  "timestamp": 1735449261,
  "chain": 43113,
  "commit": "948ea5b"
}