{
  "transactions": [
    {
      "hash": "0x0a0f1423e2aade43ee648d06e01b73da2bb8f41cd6f33309b8d9ac3ce4afa4b2",
      "transactionType": "CALL",
      "contractName": null,
      "contractAddress": "0x0de06aee38e3b4ca7472a397fac3310ab2d3508a",
      "function": "mintNFT(address,string)",
      "arguments": [
        "0x424bBA2a6f1c14e4D8e2Cf1bCAE1B06740Fa4755",
        "https://blue-glamorous-spider-989.mypinata.cloud/ipfs/bafkreic4ly6zt3u5vteb5tylx4jcpiy6weycbuqxai6t557bvvxcwqjop4"
      ],
      "transaction": {
        "from": "0x424bba2a6f1c14e4d8e2cf1bcae1b06740fa4755",
        "to": "0x0de06aee38e3b4ca7472a397fac3310ab2d3508a",
        "gas": "0x46430",
        "value": "0x0",
        "input": "0xeacabe14000000000000000000000000424bba2a6f1c14e4d8e2cf1bcae1b06740fa47550000000000000000000000000000000000000000000000000000000000000040000000000000000000000000000000000000000000000000000000000000007168747470733a2f2f626c75652d676c616d6f726f75732d7370696465722d3938392e6d7970696e6174612e636c6f75642f697066732f6261666b72656963346c79367a74337535767465623574796c78346a6370697936776579636275717861693674353537627676786377716a6f7034000000000000000000000000000000",
        "nonce": "0x3",
        "chainId": "0xa869"
      },
      "additionalContracts": [],
      "isFixedGasLimit": false
    }
  ],
  "receipts": [
    {
      "status": "0x1",
      "cumulativeGasUsed": "0x32de5",
      "logs": [
        {
          "address": "0x0de06aee38e3b4ca7472a397fac3310ab2d3508a",
          "topics": [
            "0xddf252ad1be2c89b69c2b068fc378daa952ba7f163c4a11628f55a4df523b3ef",
            "0x0000000000000000000000000000000000000000000000000000000000000000",
            "0x000000000000000000000000424bba2a6f1c14e4d8e2cf1bcae1b06740fa4755",
            "0x0000000000000000000000000000000000000000000000000000000000000000"
          ],
          "data": "0x",
          "blockHash": "0x27271a00c55e9cbf3c73f9baeff6d7bf4502df99652951f9b6dae3e5f862fa63",
          "blockNumber": "0x2399b28",
          "transactionHash": "0x0a0f1423e2aade43ee648d06e01b73da2bb8f41cd6f33309b8d9ac3ce4afa4b2",
          "transactionIndex": "0x0",
          "logIndex": "0x0",
          "removed": false
        },
        {
          "address": "0x0de06aee38e3b4ca7472a397fac3310ab2d3508a",
          "topics": [
            "0xf8e1a15aba9398e019f0b49df1a4fde98ee17ae345cb5f6b5e2c27f5033e8ce7"
          ],
          "data": "0x0000000000000000000000000000000000000000000000000000000000000000",
          "blockHash": "0x27271a00c55e9cbf3c73f9baeff6d7bf4502df99652951f9b6dae3e5f862fa63",
          "blockNumber": "0x2399b28",
          "transactionHash": "0x0a0f1423e2aade43ee648d06e01b73da2bb8f41cd6f33309b8d9ac3ce4afa4b2",
          "transactionIndex": "0x0",
          "logIndex": "0x1",
          "removed": false
        }
      ],
      "logsBloom": "0x00000000000000000000000000000000000000000800000000000000000000000000000000004000000000000000000000000000000000000000000000000040000000000000000000000008000000000000000000000000000000000000000000000000020000000000000000000800000000000000000004000010000000000000000000000000000000000000000000000000000000000000000000000000000000000000000000000000000000002000000000000000000000000000008000000002000000000000000000000000000000000000000000000000020020000000000000000000200000000000000000000000000000000000010000000000",
      "type": "0x2",
      "transactionHash": "0x0a0f1423e2aade43ee648d06e01b73da2bb8f41cd6f33309b8d9ac3ce4afa4b2",
      "transactionIndex": "0x0",
      "blockHash": "0x27271a00c55e9cbf3c73f9baeff6d7bf4502df99652951f9b6dae3e5f862fa63",
      "blockNumber": "0x2399b28",
      "gasUsed": "0x32de5",
      "effectiveGasPrice": "0x5d21dba00",
      "from": "0x424bba2a6f1c14e4d8e2cf1bcae1b06740fa4755",
      "to": "0x0de06aee38e3b4ca7472a397fac3310ab2d3508a",
      "contractAddress": null
    }
  ],
  "libraries": [],
  "pending": [],
  "returns": {},
  "timestamp": 1735399868,
  "chain": 43113,
  "commit": "b434af7"
}