{
  "transactions": [
    {
      "hash": "0x39eeb99f9fe35b42cb5772bf76c7963a57d9abe6b1836d403ebbc3930b4eee4e",
      "transactionType": "CALL",
      "contractName": null,
      "contractAddress": "0x960f177114f4ac70c1c79c7fdb5127cf9c8bb1e8",
      "function": "mint(address,string,uint256,string,uint256,uint256)",
      "arguments": [
        "0x424bBA2a6f1c14e4D8e2Cf1bCAE1B06740Fa4755",
        "Renewable Energy",
        "100",
        "ipfs://bafkreid5nywbwq3mujctdoz3ilxhncbvglmqe5m3jswg5qk5hn3mzqhnxq",
        "1735798390",
        "30000"
      ],
      "transaction": {
        "from": "0x424bba2a6f1c14e4d8e2cf1bcae1b06740fa4755",
        "to": "0x960f177114f4ac70c1c79c7fdb5127cf9c8bb1e8",
        "gas": "0xd6d3e",
        "value": "0x0",
        "input": "0x3934d9cb000000000000000000000000424bba2a6f1c14e4d8e2cf1bcae1b06740fa475500000000000000000000000000000000000000000000000000000000000000c0000000000000000000000000000000000000000000000000000000000000006400000000000000000000000000000000000000000000000000000000000001000000000000000000000000000000000000000000000000000000000067762e760000000000000000000000000000000000000000000000000000000000007530000000000000000000000000000000000000000000000000000000000000001052656e657761626c6520456e65726779000000000000000000000000000000000000000000000000000000000000000000000000000000000000000000000042697066733a2f2f6261666b72656964356e7977627771336d756a6374646f7a33696c78686e636276676c6d7165356d336a73776735716b35686e336d7a71686e7871000000000000000000000000000000000000000000000000000000000000",
        "nonce": "0x20",
        "chainId": "0xa869"
      },
      "additionalContracts": [],
      "isFixedGasLimit": false
    }
  ],
  "receipts": [
    {
      "status": "0x1",
      "cumulativeGasUsed": "0x92e41",
      "logs": [
        {
          "address": "0x960f177114f4ac70c1c79c7fdb5127cf9c8bb1e8",
          "topics": [
            "0xddf252ad1be2c89b69c2b068fc378daa952ba7f163c4a11628f55a4df523b3ef",
            "0x0000000000000000000000000000000000000000000000000000000000000000",
            "0x000000000000000000000000424bba2a6f1c14e4d8e2cf1bcae1b06740fa4755",
            "0x0000000000000000000000000000000000000000000000000000000000000000"
          ],
          "data": "0x",
          "blockHash": "0x22c959313676f178926e77d582741520e6cdcf66cd4f2ef91e21518a10c7893f",
          "blockNumber": "0x23a1238",
          "transactionHash": "0x39eeb99f9fe35b42cb5772bf76c7963a57d9abe6b1836d403ebbc3930b4eee4e",
          "transactionIndex": "0x0",
          "logIndex": "0x0",
          "removed": false
        },
        {
          "address": "0x960f177114f4ac70c1c79c7fdb5127cf9c8bb1e8",
          "topics": [
            "0xf8e1a15aba9398e019f0b49df1a4fde98ee17ae345cb5f6b5e2c27f5033e8ce7"
          ],
          "data": "0x0000000000000000000000000000000000000000000000000000000000000000",
          "blockHash": "0x22c959313676f178926e77d582741520e6cdcf66cd4f2ef91e21518a10c7893f",
          "blockNumber": "0x23a1238",
          "transactionHash": "0x39eeb99f9fe35b42cb5772bf76c7963a57d9abe6b1836d403ebbc3930b4eee4e",
          "transactionIndex": "0x0",
          "logIndex": "0x1",
          "removed": false
        },
        {
          "address": "0x960f177114f4ac70c1c79c7fdb5127cf9c8bb1e8",
          "topics": [
            "0x5dcd88a560e07df2aa517ef631628754039eb059d6d58ff3865397b4e8d8846b",
            "0x000000000000000000000000424bba2a6f1c14e4d8e2cf1bcae1b06740fa4755",
            "0x0000000000000000000000000000000000000000000000000000000000000000"
          ],
          "data": "0x00000000000000000000000000000000000000000000000000000000000000200000000000000000000000000000000000000000000000000000000000000042697066733a2f2f6261666b72656964356e7977627771336d756a6374646f7a33696c78686e636276676c6d7165356d336a73776735716b35686e336d7a71686e7871000000000000000000000000000000000000000000000000000000000000",
          "blockHash": "0x22c959313676f178926e77d582741520e6cdcf66cd4f2ef91e21518a10c7893f",
          "blockNumber": "0x23a1238",
          "transactionHash": "0x39eeb99f9fe35b42cb5772bf76c7963a57d9abe6b1836d403ebbc3930b4eee4e",
          "transactionIndex": "0x0",
          "logIndex": "0x2",
          "removed": false
        }
      ],
      "logsBloom": "0x00000000000000000000000000000000000000000800000000000000000000000000000000000000000000000000000000000000000000000000000000000040000000000008000000000008000000000080000000000000000000000000000000000000020000000000000000000800000000000000000000000010000000000000000000000000000000000000000008000000000000000000000000000000000000000000000000000000000000002000000000000000000000000000008000000002000000000200000000000000000000000000000000000000020020000000000000020000200000000000000000000000000000000000000800000000",
      "type": "0x2",
      "transactionHash": "0x39eeb99f9fe35b42cb5772bf76c7963a57d9abe6b1836d403ebbc3930b4eee4e",
      "transactionIndex": "0x0",
      "blockHash": "0x22c959313676f178926e77d582741520e6cdcf66cd4f2ef91e21518a10c7893f",
      "blockNumber": "0x23a1238",
      "gasUsed": "0x92e41",
      "effectiveGasPrice": "0x48a4a6300",
      "from": "0x424bba2a6f1c14e4d8e2cf1bcae1b06740fa4755",
      "to": "0x960f177114f4ac70c1c79c7fdb5127cf9c8bb1e8",
      "contractAddress": null
    }
  ],
  "libraries": [],
  "pending": [],
  "returns": {},
  "timestamp": 1735625647,
  "chain": 43113,
  "commit": "a7ff983"
}