{
  "transactions": [
    {
      "hash": "0xf65fc07740729de33401a1d1bb9179e51cc65c19205cf9b1f71badb3210fe68e",
      "transactionType": "CALL",
      "contractName": null,
      "contractAddress": "0xabb026c81ba331999b2343c417ac15db9216f3bd",
      "function": "mint(address,string,uint256,string,uint256)",
      "arguments": [
        "0x424bBA2a6f1c14e4D8e2Cf1bCAE1B06740Fa4755",
        "Renewable Energy",
        "100",
        "ipfs://bafkreid5nywbwq3mujctdoz3ilxhncbvglmqe5m3jswg5qk5hn3mzqhnxq",
        "1735790411"
      ],
      "transaction": {
        "from": "0x424bba2a6f1c14e4d8e2cf1bcae1b06740fa4755",
        "to": "0xabb026c81ba331999b2343c417ac15db9216f3bd",
        "gas": "0xc3576",
        "value": "0x0",
        "input": "0xd2bb8c26000000000000000000000000424bba2a6f1c14e4d8e2cf1bcae1b06740fa475500000000000000000000000000000000000000000000000000000000000000a0000000000000000000000000000000000000000000000000000000000000006400000000000000000000000000000000000000000000000000000000000000e00000000000000000000000000000000000000000000000000000000067760f4b000000000000000000000000000000000000000000000000000000000000001052656e657761626c6520456e65726779000000000000000000000000000000000000000000000000000000000000000000000000000000000000000000000042697066733a2f2f6261666b72656964356e7977627771336d756a6374646f7a33696c78686e636276676c6d7165356d336a73776735716b35686e336d7a71686e7871000000000000000000000000000000000000000000000000000000000000",
        "nonce": "0x19",
        "chainId": "0xa869"
      },
      "additionalContracts": [],
      "isFixedGasLimit": false
    }
  ],
  "receipts": [
    {
      "status": "0x1",
      "cumulativeGasUsed": "0x8d6c8",
      "logs": [
        {
          "address": "0xabb026c81ba331999b2343c417ac15db9216f3bd",
          "topics": [
            "0xddf252ad1be2c89b69c2b068fc378daa952ba7f163c4a11628f55a4df523b3ef",
            "0x0000000000000000000000000000000000000000000000000000000000000000",
            "0x000000000000000000000000424bba2a6f1c14e4d8e2cf1bcae1b06740fa4755",
            "0x0000000000000000000000000000000000000000000000000000000000000000"
          ],
          "data": "0x",
          "blockHash": "0x44076ca0c1f0358a39fbc6f68762f98c65354a5b0f70c30593921699f3c23f0f",
          "blockNumber": "0x23a0cbf",
          "transactionHash": "0xf65fc07740729de33401a1d1bb9179e51cc65c19205cf9b1f71badb3210fe68e",
          "transactionIndex": "0x0",
          "logIndex": "0x0",
          "removed": false
        },
        {
          "address": "0xabb026c81ba331999b2343c417ac15db9216f3bd",
          "topics": [
            "0xf8e1a15aba9398e019f0b49df1a4fde98ee17ae345cb5f6b5e2c27f5033e8ce7"
          ],
          "data": "0x0000000000000000000000000000000000000000000000000000000000000000",
          "blockHash": "0x44076ca0c1f0358a39fbc6f68762f98c65354a5b0f70c30593921699f3c23f0f",
          "blockNumber": "0x23a0cbf",
          "transactionHash": "0xf65fc07740729de33401a1d1bb9179e51cc65c19205cf9b1f71badb3210fe68e",
          "transactionIndex": "0x0",
          "logIndex": "0x1",
          "removed": false
        },
        {
          "address": "0xabb026c81ba331999b2343c417ac15db9216f3bd",
          "topics": [
            "0x5dcd88a560e07df2aa517ef631628754039eb059d6d58ff3865397b4e8d8846b",
            "0x000000000000000000000000424bba2a6f1c14e4d8e2cf1bcae1b06740fa4755",
            "0x0000000000000000000000000000000000000000000000000000000000000000"
          ],
          "data": "0x00000000000000000000000000000000000000000000000000000000000000200000000000000000000000000000000000000000000000000000000000000042697066733a2f2f6261666b72656964356e7977627771336d756a6374646f7a33696c78686e636276676c6d7165356d336a73776735716b35686e336d7a71686e7871000000000000000000000000000000000000000000000000000000000000",
          "blockHash": "0x44076ca0c1f0358a39fbc6f68762f98c65354a5b0f70c30593921699f3c23f0f",
          "blockNumber": "0x23a0cbf",
          "transactionHash": "0xf65fc07740729de33401a1d1bb9179e51cc65c19205cf9b1f71badb3210fe68e",
          "transactionIndex": "0x0",
          "logIndex": "0x2",
          "removed": false
        }
      ],
      "logsBloom": "0x00000000000000000000000000000000000000000800000000000000000000000000000000000000001000000000000000000000000000000000000000000040000000000008000000000008000000000000000000000000000000000000000000000000020000000000000000000800000000000000000000000010000000000000000000000000000000000000000000000000000000000000000000000000000000000000000000000000000000002000000000000000000000000000008000000002000000000001000000000000000000000000000000000000020020000000000000020000200000000000000000000000000000000800000800000000",
      "type": "0x2",
      "transactionHash": "0xf65fc07740729de33401a1d1bb9179e51cc65c19205cf9b1f71badb3210fe68e",
      "transactionIndex": "0x0",
      "blockHash": "0x44076ca0c1f0358a39fbc6f68762f98c65354a5b0f70c30593921699f3c23f0f",
      "blockNumber": "0x23a0cbf",
      "gasUsed": "0x8d6c8",
      "effectiveGasPrice": "0x4d7c6d00",
      "from": "0x424bba2a6f1c14e4d8e2cf1bcae1b06740fa4755",
      "to": "0xabb026c81ba331999b2343c417ac15db9216f3bd",
      "contractAddress": null
    }
  ],
  "libraries": [],
  "pending": [],
  "returns": {},
  "timestamp": 1735617662,
  "chain": 43113,
  "commit": "a953ab2"
}