{
  "transactions": [
    {
      "hash": "0xdad4be85b6aa74e3952b8d71ded8faf925a1e8816854c419accfcbbb207e81f0",
      "transactionType": "CALL",
      "contractName": null,
      "contractAddress": "0x5ebdb988df7aeca60fbf28b5fd1b07509b6fca20",
      "function": "mint(address,string,uint256,string,uint256,uint256)",
      "arguments": [
        "0x424bBA2a6f1c14e4D8e2Cf1bCAE1B06740Fa4755",
        "Renewable Energy",
        "100",
        "ipfs://bafkreid5nywbwq3mujctdoz3ilxhncbvglmqe5m3jswg5qk5hn3mzqhnxq",
        "1735796053",
        "0"
      ],
      "transaction": {
        "from": "0x424bba2a6f1c14e4d8e2cf1bcae1b06740fa4755",
        "to": "0x5ebdb988df7aeca60fbf28b5fd1b07509b6fca20",
        "gas": "0xcb98a",
        "value": "0x0",
        "input": "0x3934d9cb000000000000000000000000424bba2a6f1c14e4d8e2cf1bcae1b06740fa475500000000000000000000000000000000000000000000000000000000000000c00000000000000000000000000000000000000000000000000000000000000064000000000000000000000000000000000000000000000000000000000000010000000000000000000000000000000000000000000000000000000000677625550000000000000000000000000000000000000000000000000000000000000000000000000000000000000000000000000000000000000000000000000000001052656e657761626c6520456e65726779000000000000000000000000000000000000000000000000000000000000000000000000000000000000000000000042697066733a2f2f6261666b72656964356e7977627771336d756a6374646f7a33696c78686e636276676c6d7165356d336a73776735716b35686e336d7a71686e7871000000000000000000000000000000000000000000000000000000000000",
        "nonce": "0x1c",
        "chainId": "0xa869"
      },
      "additionalContracts": [],
      "isFixedGasLimit": false
    }
  ],
  "receipts": [
    {
      "status": "0x1",
      "cumulativeGasUsed": "0x93667",
      "logs": [
        {
          "address": "0x5ebdb988df7aeca60fbf28b5fd1b07509b6fca20",
          "topics": [
            "0xddf252ad1be2c89b69c2b068fc378daa952ba7f163c4a11628f55a4df523b3ef",
            "0x0000000000000000000000000000000000000000000000000000000000000000",
            "0x000000000000000000000000424bba2a6f1c14e4d8e2cf1bcae1b06740fa4755",
            "0x0000000000000000000000000000000000000000000000000000000000000000"
          ],
          "data": "0x",
          "blockHash": "0x1a400f6711e32a6d0def09a4abc5371a3508e3bdd90da99e03e7431b4539207e",
          "blockNumber": "0x23a1101",
          "transactionHash": "0xdad4be85b6aa74e3952b8d71ded8faf925a1e8816854c419accfcbbb207e81f0",
          "transactionIndex": "0x0",
          "logIndex": "0x0",
          "removed": false
        },
        {
          "address": "0x5ebdb988df7aeca60fbf28b5fd1b07509b6fca20",
          "topics": [
            "0xf8e1a15aba9398e019f0b49df1a4fde98ee17ae345cb5f6b5e2c27f5033e8ce7"
          ],
          "data": "0x0000000000000000000000000000000000000000000000000000000000000000",
          "blockHash": "0x1a400f6711e32a6d0def09a4abc5371a3508e3bdd90da99e03e7431b4539207e",
          "blockNumber": "0x23a1101",
          "transactionHash": "0xdad4be85b6aa74e3952b8d71ded8faf925a1e8816854c419accfcbbb207e81f0",
          "transactionIndex": "0x0",
          "logIndex": "0x1",
          "removed": false
        },
        {
          "address": "0x5ebdb988df7aeca60fbf28b5fd1b07509b6fca20",
          "topics": [
            "0x5dcd88a560e07df2aa517ef631628754039eb059d6d58ff3865397b4e8d8846b",
            "0x000000000000000000000000424bba2a6f1c14e4d8e2cf1bcae1b06740fa4755",
            "0x0000000000000000000000000000000000000000000000000000000000000000"
          ],
          "data": "0x00000000000000000000000000000000000000000000000000000000000000200000000000000000000000000000000000000000000000000000000000000042697066733a2f2f6261666b72656964356e7977627771336d756a6374646f7a33696c78686e636276676c6d7165356d336a73776735716b35686e336d7a71686e7871000000000000000000000000000000000000000000000000000000000000",
          "blockHash": "0x1a400f6711e32a6d0def09a4abc5371a3508e3bdd90da99e03e7431b4539207e",
          "blockNumber": "0x23a1101",
          "transactionHash": "0xdad4be85b6aa74e3952b8d71ded8faf925a1e8816854c419accfcbbb207e81f0",
          "transactionIndex": "0x0",
          "logIndex": "0x2",
          "removed": false
        }
      ],
      "logsBloom": "0x00000000000000000000000000000000000000000800000000000008000000000000000000000000000000000000000000000000000000000000000000000040000000000008000000000008000000002000000000000000000000000000000000000000020000000000000000000800000000000000000000000010000000000000000000000000000000000000000000000000000000000000000000000000000000000000000000000000000000002000000000000000000000000000008000000002000000000000000000000000000000000000000001000000020020000000000000020000200000000000000000000000000000000000000800000000",
      "type": "0x2",
      "transactionHash": "0xdad4be85b6aa74e3952b8d71ded8faf925a1e8816854c419accfcbbb207e81f0",
      "transactionIndex": "0x0",
      "blockHash": "0x1a400f6711e32a6d0def09a4abc5371a3508e3bdd90da99e03e7431b4539207e",
      "blockNumber": "0x23a1101",
      "gasUsed": "0x93667",
      "effectiveGasPrice": "0x5c631f81",
      "from": "0x424bba2a6f1c14e4d8e2cf1bcae1b06740fa4755",
      "to": "0x5ebdb988df7aeca60fbf28b5fd1b07509b6fca20",
      "contractAddress": null
    }
  ],
  "libraries": [],
  "pending": [],
  "returns": {},
  "timestamp": 1735623297,
  "chain": 43113,
  "commit": "39afd1a"
}