{
  "transactions": [
    {
      "hash": "0x0d3882ba75cdc210391a625aa616914e617fd81a44e76c21e1c9a6a4620ff3f1",
      "transactionType": "CALL",
      "contractName": null,
      "contractAddress": "0xe660c2da98bdd88bfede164c606d83f92a542984",
      "function": "mint(address,uint256)",
      "arguments": [
        "0x424bBA2a6f1c14e4D8e2Cf1bCAE1B06740Fa4755",
        "69000000000000000000"
      ],
      "transaction": {
        "from": "0x424bba2a6f1c14e4d8e2cf1bcae1b06740fa4755",
        "to": "0xe660c2da98bdd88bfede164c606d83f92a542984",
        "gas": "0xd047",
        "value": "0x0",
        "input": "0x40c10f19000000000000000000000000424bba2a6f1c14e4d8e2cf1bcae1b06740fa4755000000000000000000000000000000000000000000000003bd913e6c1df40000",
        "nonce": "0x5",
        "chainId": "0xa869"
      },
      "additionalContracts": [],
      "isFixedGasLimit": false
    }
  ],
  "receipts": [
    {
      "status": "0x1",
      "cumulativeGasUsed": "0x8e6a",
      "logs": [
        {
          "address": "0xe660c2da98bdd88bfede164c606d83f92a542984",
          "topics": [
            "0xddf252ad1be2c89b69c2b068fc378daa952ba7f163c4a11628f55a4df523b3ef",
            "0x0000000000000000000000000000000000000000000000000000000000000000",
            "0x000000000000000000000000424bba2a6f1c14e4d8e2cf1bcae1b06740fa4755"
          ],
          "data": "0x000000000000000000000000000000000000000000000003bd913e6c1df40000",
          "blockHash": "0x09fa819538e2b74380a047048498c1ab3962df16f83e549904c67f07da37f7c0",
          "blockNumber": "0x239b25b",
          "transactionHash": "0x0d3882ba75cdc210391a625aa616914e617fd81a44e76c21e1c9a6a4620ff3f1",
          "transactionIndex": "0x0",
          "logIndex": "0x0",
          "removed": false
        }
      ],
      "logsBloom": "0x00000000000000000000000000000000000000000800000000000000000000000000000000000000000000000000000000000000000000000000000000000040000000200000000000000008000000000000000000000000000000000000000000000000020000000000000000000800000000000000000000000010000000000000000000000000000000000000000000000000000000000000000000400000000000000000000000000000000000000000000000000000000000000000000000000002000000000000000000000000000000000200000000000000020020000000000000000000000000000000000000000000000000000000000000000000",
      "type": "0x2",
      "transactionHash": "0x0d3882ba75cdc210391a625aa616914e617fd81a44e76c21e1c9a6a4620ff3f1",
      "transactionIndex": "0x0",
      "blockHash": "0x09fa819538e2b74380a047048498c1ab3962df16f83e549904c67f07da37f7c0",
      "blockNumber": "0x239b25b",
      "gasUsed": "0x8e6a",
      "effectiveGasPrice": "0x5d21dba00",
      "from": "0x424bba2a6f1c14e4d8e2cf1bcae1b06740fa4755",
      "to": "0xe660c2da98bdd88bfede164c606d83f92a542984",
      "contractAddress": null
    }
  ],
  "libraries": [],
  "pending": [],
  "returns": {},
  "timestamp": 1735448723,
  "chain": 43113,
  "commit": "3faed47"
}